{
  "contractName": "Roulette",
  "abi": [
    {
      "inputs": [],
      "stateMutability": "nonpayable",
      "type": "constructor"
    },
    {
      "anonymous": false,
      "inputs": [
        {
          "indexed": true,
          "internalType": "address",
          "name": "player",
          "type": "address"
        },
        {
          "indexed": false,
          "internalType": "uint256",
          "name": "amount",
          "type": "uint256"
        }
      ],
      "name": "BetPlaced",
      "type": "event"
    },
    {
      "anonymous": false,
      "inputs": [
        {
          "indexed": true,
          "internalType": "address",
          "name": "winner",
          "type": "address"
        },
        {
          "indexed": false,
          "internalType": "uint256",
          "name": "amount",
          "type": "uint256"
        }
      ],
      "name": "GameFinished",
      "type": "event"
    },
    {
      "stateMutability": "payable",
      "type": "fallback",
      "payable": true
    },
    {
      "inputs": [
        {
          "internalType": "uint256",
          "name": "",
          "type": "uint256"
        }
      ],
      "name": "bets",
      "outputs": [
        {
          "internalType": "address",
          "name": "player",
          "type": "address"
        },
        {
          "internalType": "uint256",
          "name": "amount",
          "type": "uint256"
        }
      ],
      "stateMutability": "view",
      "type": "function",
      "constant": true
    },
    {
      "inputs": [],
      "name": "gameFinished",
      "outputs": [
        {
          "internalType": "bool",
          "name": "",
          "type": "bool"
        }
      ],
      "stateMutability": "view",
      "type": "function",
      "constant": true
    },
    {
      "inputs": [],
      "name": "owner",
      "outputs": [
        {
          "internalType": "address",
          "name": "",
          "type": "address"
        }
      ],
      "stateMutability": "view",
      "type": "function",
      "constant": true
    },
    {
      "inputs": [],
      "name": "totalBetAmount",
      "outputs": [
        {
          "internalType": "uint256",
          "name": "",
          "type": "uint256"
        }
      ],
      "stateMutability": "view",
      "type": "function",
      "constant": true
    },
    {
      "inputs": [],
      "name": "winner",
      "outputs": [
        {
          "internalType": "address",
          "name": "",
          "type": "address"
        }
      ],
      "stateMutability": "view",
      "type": "function",
      "constant": true
    },
    {
      "stateMutability": "payable",
      "type": "receive",
      "payable": true
    },
    {
      "inputs": [],
      "name": "newGame",
      "outputs": [],
      "stateMutability": "nonpayable",
      "type": "function"
    },
    {
      "inputs": [],
      "name": "placeBet",
      "outputs": [],
      "stateMutability": "payable",
      "type": "function",
      "payable": true
    },
    {
      "inputs": [],
      "name": "endGame",
      "outputs": [],
      "stateMutability": "payable",
      "type": "function",
      "payable": true
    },
    {
      "inputs": [],
      "name": "getBetCount",
      "outputs": [
        {
          "internalType": "uint256",
          "name": "",
          "type": "uint256"
        }
      ],
      "stateMutability": "view",
      "type": "function",
      "constant": true
    },
    {
      "inputs": [
        {
          "internalType": "uint256",
          "name": "index",
          "type": "uint256"
        }
      ],
      "name": "getBet",
      "outputs": [
        {
          "internalType": "address",
          "name": "player",
          "type": "address"
        },
        {
          "internalType": "uint256",
          "name": "amount",
          "type": "uint256"
        }
      ],
      "stateMutability": "view",
      "type": "function",
      "constant": true
    },
    {
      "inputs": [],
      "name": "getGameState",
      "outputs": [
        {
          "components": [
            {
              "internalType": "address",
              "name": "player",
              "type": "address"
            },
            {
              "internalType": "uint256",
              "name": "amount",
              "type": "uint256"
            }
          ],
          "internalType": "struct Roulette.Bet[]",
          "name": "players",
          "type": "tuple[]"
        },
        {
          "internalType": "uint256",
          "name": "totalBet",
          "type": "uint256"
        },
        {
          "internalType": "address",
          "name": "Winner",
          "type": "address"
        },
        {
          "internalType": "uint256",
          "name": "players_num",
          "type": "uint256"
        }
      ],
      "stateMutability": "view",
      "type": "function",
      "constant": true
    }
  ],
  "bytecode": "0x608060405234801561001057600080fd5b506000600360006101000a81548160ff021916908315150217905550336000806101000a81548173ffffffffffffffffffffffffffffffffffffffff021916908373ffffffffffffffffffffffffffffffffffffffff1602179055506000600281905550610f3d806100836000396000f3fe6080604052600436106100a05760003560e01c80638da5cb5b116100645780638da5cb5b14610171578063b7d0628b1461019c578063b93dab0b146101ca578063dfbf53ae146101f5578063f0f3249714610220578063f90f45601461024b576100a7565b8063061e494f146100a957806322af00fa146100e7578063613f4594146101255780636cbc2ded146101505780637d03f5f31461015a576100a7565b366100a757005b005b3480156100b557600080fd5b506100d060048036038101906100cb9190610a1b565b610255565b6040516100de929190610d09565b60405180910390f35b3480156100f357600080fd5b5061010e60048036038101906101099190610a1b565b6102f2565b60405161011c929190610d09565b60405180910390f35b34801561013157600080fd5b5061013a610343565b6040516101479190610e39565b60405180910390f35b610158610349565b005b34801561016657600080fd5b5061016f610678565b005b34801561017d57600080fd5b506101866106ed565b6040516101939190610cee565b60405180910390f35b3480156101a857600080fd5b506101b1610711565b6040516101c19493929190610d32565b60405180910390f35b3480156101d657600080fd5b506101df61080a565b6040516101ec9190610e39565b60405180910390f35b34801561020157600080fd5b5061020a610817565b6040516102179190610cee565b60405180910390f35b34801561022c57600080fd5b5061023561083d565b6040516102429190610d7e565b60405180910390f35b610253610850565b005b600080600180549050831061029f576040517f08c379a000000000000000000000000000000000000000000000000000000000815260040161029690610df9565b60405180910390fd5b6000600184815481106102ae57fe5b906000526020600020906002020190508060000160009054906101000a900473ffffffffffffffffffffffffffffffffffffffff1681600101549250925050915091565b600181815481106102ff57fe5b90600052602060002090600202016000915090508060000160009054906101000a900473ffffffffffffffffffffffffffffffffffffffff16908060010154905082565b60025481565b600360009054906101000a900460ff1615610399576040517f08c379a000000000000000000000000000000000000000000000000000000000815260040161039090610d99565b60405180910390fd5b60008054906101000a900473ffffffffffffffffffffffffffffffffffffffff1673ffffffffffffffffffffffffffffffffffffffff163373ffffffffffffffffffffffffffffffffffffffff1614610427576040517f08c379a000000000000000000000000000000000000000000000000000000000815260040161041e90610e19565b60405180910390fd5b60006001805490501415610470576040517f08c379a000000000000000000000000000000000000000000000000000000000815260040161046790610db9565b60405180910390fd5b6000600254424460025460405160200161048c93929190610cb1565b6040516020818303038152906040528051906020012060001c816104ac57fe5b0690506000805b60018054905081101561057b57600181815481106104cd57fe5b9060005260206000209060020201600101548201915082821061056e57600181815481106104f757fe5b906000526020600020906002020160000160009054906101000a900473ffffffffffffffffffffffffffffffffffffffff16600360016101000a81548173ffffffffffffffffffffffffffffffffffffffff021916908373ffffffffffffffffffffffffffffffffffffffff16021790555061057b565b80806001019150506104b3565b50600360019054906101000a900473ffffffffffffffffffffffffffffffffffffffff1673ffffffffffffffffffffffffffffffffffffffff166108fc6002549081150290604051600060405180830381858888f193505050501580156105e6573d6000803e3d6000fd5b506001600360006101000a81548160ff021916908315150217905550600360019054906101000a900473ffffffffffffffffffffffffffffffffffffffff1673ffffffffffffffffffffffffffffffffffffffff167f27223f8d1d659564536abdf661d810b8a16ca4f6c69034f2a73b74b0853d982960025460405161066c9190610e39565b60405180910390a25050565b6000600360006101000a81548160ff0219169083151502179055506000600281905550600160006106a9919061099c565b6000600360016101000a81548173ffffffffffffffffffffffffffffffffffffffff021916908373ffffffffffffffffffffffffffffffffffffffff160217905550565b60008054906101000a900473ffffffffffffffffffffffffffffffffffffffff1681565b606060008060006001805480602002602001604051908101604052809291908181526020016000905b828210156107cc57838290600052602060002090600202016040518060400160405290816000820160009054906101000a900473ffffffffffffffffffffffffffffffffffffffff1673ffffffffffffffffffffffffffffffffffffffff1673ffffffffffffffffffffffffffffffffffffffff1681526020016001820154815250508152602001906001019061073a565b5050505093506002549250600360019054906101000a900473ffffffffffffffffffffffffffffffffffffffff169150600180549050905090919293565b6000600180549050905090565b600360019054906101000a900473ffffffffffffffffffffffffffffffffffffffff1681565b600360009054906101000a900460ff1681565b60003411610893576040517f08c379a000000000000000000000000000000000000000000000000000000000815260040161088a90610dd9565b60405180910390fd5b600160405180604001604052803373ffffffffffffffffffffffffffffffffffffffff16815260200134815250908060018154018082558091505060019003906000526020600020906002020160009091909190915060008201518160000160006101000a81548173ffffffffffffffffffffffffffffffffffffffff021916908373ffffffffffffffffffffffffffffffffffffffff160217905550602082015181600101555050346002600082825401925050819055503373ffffffffffffffffffffffffffffffffffffffff167f43e08d78302cdf9c94e1ffd293c2a3696139ee41cf3199b6f5eed9c7f6cc6090346040516109929190610e39565b60405180910390a2565b50805460008255600202906000526020600020908101906109bd91906109c0565b50565b5b80821115610a0257600080820160006101000a81549073ffffffffffffffffffffffffffffffffffffffff02191690556001820160009055506002016109c1565b5090565b600081359050610a1581610ef0565b92915050565b600060208284031215610a2d57600080fd5b6000610a3b84828501610a06565b91505092915050565b6000610a508383610c4d565b60408301905092915050565b610a6581610e9e565b82525050565b610a7481610e9e565b82525050565b6000610a8582610e64565b610a8f8185610e7c565b9350610a9a83610e54565b8060005b83811015610acb578151610ab28882610a44565b9750610abd83610e6f565b925050600181019050610a9e565b5085935050505092915050565b610ae181610eb0565b82525050565b6000610af4601783610e8d565b91507f47616d652068617320616c726561647920656e646564210000000000000000006000830152602082019050919050565b6000610b34601483610e8d565b91507f4e6f626f647920697320706c6179696e672e2e2e0000000000000000000000006000830152602082019050919050565b6000610b74602483610e8d565b91507f42657420616d6f756e74206d7573742062652067726561746572207468616e2060008301527f7a65726f000000000000000000000000000000000000000000000000000000006020830152604082019050919050565b6000610bda601383610e8d565b91507f496e646578206f7574206f6620626f756e6473000000000000000000000000006000830152602082019050919050565b6000610c1a600c83610e8d565b91507f57726f6e6720456e6465642100000000000000000000000000000000000000006000830152602082019050919050565b604082016000820151610c636000850182610a5c565b506020820151610c766020850182610c7c565b50505050565b610c8581610edc565b82525050565b610c9481610edc565b82525050565b610cab610ca682610edc565b610ee6565b82525050565b6000610cbd8286610c9a565b602082019150610ccd8285610c9a565b602082019150610cdd8284610c9a565b602082019150819050949350505050565b6000602082019050610d036000830184610a6b565b92915050565b6000604082019050610d1e6000830185610a6b565b610d2b6020830184610c8b565b9392505050565b60006080820190508181036000830152610d4c8187610a7a565b9050610d5b6020830186610c8b565b610d686040830185610a6b565b610d756060830184610c8b565b95945050505050565b6000602082019050610d936000830184610ad8565b92915050565b60006020820190508181036000830152610db281610ae7565b9050919050565b60006020820190508181036000830152610dd281610b27565b9050919050565b60006020820190508181036000830152610df281610b67565b9050919050565b60006020820190508181036000830152610e1281610bcd565b9050919050565b60006020820190508181036000830152610e3281610c0d565b9050919050565b6000602082019050610e4e6000830184610c8b565b92915050565b6000819050602082019050919050565b600081519050919050565b6000602082019050919050565b600082825260208201905092915050565b600082825260208201905092915050565b6000610ea982610ebc565b9050919050565b60008115159050919050565b600073ffffffffffffffffffffffffffffffffffffffff82169050919050565b6000819050919050565b6000819050919050565b610ef981610edc565b8114610f0457600080fd5b5056fea26469706673582212205a94a16b81d332bc76c161dca1ab6fe9cc99662382e707fe4da84fceaa14cde864736f6c63430007030033",
  "immutableReferences": {},
  "source": "// SPDX-License-Identifier: MIT\npragma solidity >=0.4.22 <0.9.0;\npragma experimental ABIEncoderV2;\n\ncontract Roulette {\n    address public owner;\n\n    struct Bet {\n        address player;\n        uint amount;\n    }\n\n    Bet[] public bets;\n    uint public totalBetAmount;\n    bool public gameFinished;\n    address public winner;\n\n    event BetPlaced(address indexed player, uint amount);\n    event GameFinished(address indexed winner, uint amount);\n\n    constructor() {\n        gameFinished = false;\n        owner = msg.sender;\n        totalBetAmount = 0;\n    }\n\n    receive() external payable {}\n    fallback() external payable {}\n\n    function newGame() public {\n        // require(gameFinished, \"Game is not ended\");\n        gameFinished = false;\n        totalBetAmount = 0;\n        delete bets;\n        winner = address(0);\n    }\n\n    function placeBet() public payable{\n        require(msg.value > 0, \"Bet amount must be greater than zero\");\n\n        bets.push(Bet({\n            player: msg.sender,\n            amount: msg.value\n        }));\n\n        totalBetAmount += msg.value;\n\n        emit BetPlaced(msg.sender, msg.value);\n    }\n\n    function endGame() public payable {\n        require(!gameFinished, \"Game has already ended!\");\n        require(msg.sender == owner, \"Wrong Ended!\");\n        require(bets.length != 0, \"Nobody is playing...\");\n\n        uint randomValue = uint(keccak256(abi.encodePacked(block.timestamp, block.difficulty, totalBetAmount))) % totalBetAmount;\n        uint cumulativeSum = 0;\n\n        for (uint i = 0; i < bets.length; i++) {\n            cumulativeSum += bets[i].amount;\n            if (cumulativeSum >= randomValue) {\n                winner = bets[i].player;\n                break;\n            }\n        }\n        // winner = 0x0a66183a0F0E593e12Efcda6e87104519d4C54BE;\n        payable(winner).transfer(totalBetAmount);\n        gameFinished = true;\n        // totalBetAmount = 0;\n        // bets = new Bet[](0);\n        // delete bets;\n        \n        emit GameFinished(winner, totalBetAmount);\n    }\n\n    function getBetCount() public view returns (uint) {\n        return bets.length;\n    }\n\n    function getBet(uint index) public view returns (address player, uint amount) {\n        require(index < bets.length, \"Index out of bounds\");\n        Bet storage bet = bets[index];\n        return (bet.player, bet.amount);\n    }\n\n    function getGameState() public view returns (Bet[] memory players, uint totalBet, address Winner, uint players_num) {\n        players = bets;\n        totalBet = totalBetAmount;\n        Winner = winner;\n        players_num = bets.length;\n        return (players, totalBet, Winner, players_num);\n    }\n}",
  "sourcePath": "/home/kid/Desktop/roulette/contracts/Roulette.sol",
  "compiler": {
    "name": "solc",
    "version": "0.7.3+commit.9bfce1f6.Emscripten.clang"
  },
  "schemaVersion": "3.4.16",
  "updatedAt": "2024-09-27T06:18:22.197Z",
  "networkType": "ethereum",
  "devdoc": {
    "kind": "dev",
    "methods": {},
    "version": 1
  },
  "userdoc": {
    "kind": "user",
    "methods": {},
    "version": 1
  }
}